:100000000C9407060C944E060C944E060C944E0667
:100010000C944E060C944E060C944E060C944E0610
:100020000C944E060C944E060C94470E0C94190F2B
:100030000C94B61E0C944E060C944E060C944E0670
:100040000C944E060C944E060C944E060C944E06E0
:100050000C944E060C941E1F0C944E060C944E06E7
:100060000C944E060C944E060C944E060C944E06C0
:100070000C944E060C944E060C944E060C944E06B0
:100080000C944E060C944E060C944E060C944E06A0
:100090000C944E060C944E060C944E060C944E0690
:1000A0000C944E060C944E060C944E06860FA80F28
:1000B0009B10A80F9B10ED0F10109B10651078106F
:1000C000C313C313ED13ED1348146E148E168E165E
:1000D00085148E167015701525168E163A167B1619
:1000E0000001E101040204011602160107020702E1
:1000F000E101090209010A020A010B020B000001D9
:10010000E1010B020B02E101080208010F020F01DD
:100110000F020F0112021200F1A1028A00D200D0D8
:1001200000F0C41E1F20212223242526272D2E2A3D
:100130002B141A0815171C180C12132F3031C10478
:100140001607090A0B0D0E0F33340028E1001D1BA2
:10015000061905111036373800E5E0E3E200002CFF
:1001600000000000E6C0E7E4353A3B3C3D3E3F403E
:100170004142434445010101523946014A4E4B4D2B
:10018000490101010150514F4C015051524F01A9F9
:1001900000010100010101C2C3010101A8AA00017F
:1001A00001010100000100000000F50101010A0049
:1001B0002530313662003A200025303258000A726C
:1001C0002F632030313233343536373839414243AA
:1001D0004445460A000A002530325800626F756EA9
:1001E0006365213A20005B735D004B6579626F6146
:1001F00072642073746172742E0A00555342206336
:100200006F6E666967757265642E0A005B575D00E4
:100210005B535D005B525D005B445D005B435D00D2
:100220000A03470048003600300000001203670050
:10023000650065006B006800610063006B000000F2
:100240000403090409028D00050100A0320904001D
:10025000000103010100092111010001223F0007F3
:1002600005810308000A09040100010301020009D5
:100270002111010001224D000705820308000A092F
:1002800004020001030000000921110100012236CF
:10029000000705830308000A0904030002030000A5
:1002A000000921110100012220000705840320001C
:1002B00001070504032000010904040001030000F4
:1002C00000092111010001223900070585031000F2
:1002D000011201100100000008EDFE606001000144
:1002E00002000105010906A101050719E029E7152A
:1002F0000025019508750181020508190129059558
:1003000005750191029501750391010507190029F1
:100310007715002501957875018102C00631FF0926
:1003200074A1010975150025FF9520750881020942
:1003300076150025FF952075089102C005010980FA
:10034000A101850216010026B7001A01002AB70094
:10035000751095018100C0050C0901A101850316E6
:100360000100269C021A01002A9C02751095018149
:1003700000C005010902A1010901A1000509190137
:100380002905150025019505750181029501750363
:1003900081010501093009311581257F9502750814
:1003A000810609381581257F950175088106050CA0
:1003B0000A38021581257F950175088106C0C005A0
:1003C000010906A101050719E029E7150025019596
:1003D0000875018102950175088101050819012937
:1003E00005950575019102950175039101050719A0
:1003F0000029FF150025FF950675088100C00A0039
:100400002530325820006B6579626F6172645F72CB
:1004100065706F72743A20000A0025303258006B04
:100420006579626F6172645F7365745F6C65643A6D
:10043000200064656C5F6B65795F6269743A206364
:10044000616E27742064656C3A20253032580A00AA
:100450006164645F6B65795F6269743A2063616EA1
:100460002774206164643A20253032580A00646F92
:100470006E652E0A00626F6F676D61676963207336
:1004800063616E3A202E2E2E2000290A0025750069
:100490002F002575005D28002564002000256400DC
:1004A000200025640020002564007C00253032589F
:1004B000006D6F7573656B6579205B62746E7C7817
:1004C0002079207620685D287265702F61636C2921
:1004D0003A205B006D6B5F776865656C5F74696D72
:1004E000655F746F5F6D6178203D2025640A006D43
:1004F0006B5F776865656C5F6D61785F737065656C
:1005000064203D2025640A006D6B5F74696D655F32
:10051000746F5F6D6178203D2025640A006D6B5F0C
:100520006D61785F7370656564203D2025640A0005
:100530006D6B5F696E74657276616C203D20256419
:100540000A006D6B5F64656C6179203D2025640A4B
:10055000006D6B5F776865656C5F74696D655F746E
:100560006F5F6D6178203D2025640A006D6B5F77B9
:100570006865656C5F6D61785F7370656564203D6B
:100580002025640A006D6B5F74696D655F746F5F31
:100590006D6178203D2025640A006D6B5F6D617888
:1005A0005F7370656564203D2025640A006D6B5F94
:1005B000696E74657276616C203D2025640A006D59
:1005C0006B5F64656C6179203D2025640A000A0038
:1005D000257500363A20776865656C5F74696D65CE
:1005E0005F746F5F6D61783A20000A0025750035F1
:1005F0003A20776865656C5F6D61785F73706565DB
:10060000643A20000A00257500343A2074696D654B
:100610005F746F5F6D61783A20000A0025750033C2
:100620003A206D61785F73706565643A20000A0056
:10063000257500323A20696E74657276616C286D9A
:1006400073293A20000A00257500313A2064656C50
:100650006179282A31306D73293A20000A092D204A
:1006600056616C756573202D0A004D3E004D256462
:100670003E20003F007365742064656661756C748C
:100680000A00433E200077686572652064656C74DB
:10069000613A20637572736F723D25642C20776810
:1006A00065656C3D25640A53656520687474703A0D
:1006B0002F2F656E2E77696B6970656469612E6F87
:1006C00072672F77696B692F4D6F7573655F6B6507
:1006D00079730A000A092D204D6F7573656B657972
:1006E000202D0A4553432F713A09717569740A31F7
:1006F0003A0964656C6179282A31306D73290A32B0
:100700003A09696E74657276616C286D73290A33D3
:100710003A096D61785F73706565640A343A0974EB
:10072000696D655F746F5F6D61780A353A09776846
:1007300065656C5F6D61785F73706565640A363AF4
:1007400009776865656C5F74696D655F746F5F6D6F
:1007500061780A0A703A097072696E742076616C69
:100760007565730A643A097365742064656661751A
:100770006C74730A75703A092B310A646F776E3A9C
:10078000092D310A706775703A092B31300A70678C
:10079000646F776E3A092D31300A0A7370656564AB
:1007A000203D2064656C7461202A206D61785F7340
:1007B00070656564202A2028726570656174202F39
:1007C0002074696D655F746F5F6D6178290A003F01
:1007D000004D3E2000433E20004C25640A000A09DB
:1007E0002D20436F6E736F6C65202D0A4553432F88
:1007F000713A09717569740A6D3A096D6F7573659F
:100800006B65790A000A092D204D61676963202D07
:100810000A643A0964656275670A783A0964656230
:100820007567206D61747269780A6B3A0964656254
:100830007567206B6579626F6172640A6D3A09644D
:1008400065627567206D6F7573650A763A0976651E
:100850007273696F6E0A733A097374617475730AFF
:10086000633A09636F6E736F6C65206D6F64650A20
:10087000302D343A096C61796572302D3428463157
:10088000302D4634290A506175733A09626F6F74CE
:100890006C6F616465720A653A09656570726F6DA7
:1008A0000A6E3A094E4B524F0A000A002575002E77
:1008B0006E6B726F3A20000A002575002E73776107
:1008C000705F6261636B736C6173685F6261636BBD
:1008D00073706163653A20000A002575002E7377F6
:1008E00061705F67726176655F6573633A20000AC5
:1008F000002575002E6E6F5F6775693A20000A004B
:100900002575002E737761705F72616C745F72671A
:1009100075693A20000A002575002E737761705FB3
:100920006C616C745F6C6775693A20000A0025750C
:10093000002E636170736C6F636B5F746F5F636FC6
:100940006E74726F6C3A20000A002575002E737762
:1009500061705F636F6E74726F6C5F636170736CF4
:100960006F636B3A20000A0025303258006B6579BE
:100970006D61705F636F6E6669672E7261773A2092
:10098000000A002575002E6D6F7573653A20000A08
:10099000002575002E6B6579626F6172643A2000E4
:1009A0000A002575002E6D61747269783A20000A7C
:1009B000002575002E656E61626C653A20000A00A4
:1009C000253032580064656275675F636F6E6669D3
:1009D000672E7261773A20000A002575006465660B
:1009E00061756C745F6C617965723A20003F004EEE
:1009F0004B524F3A206F66660A004E4B524F3A20D8
:100A00006F6E0A0074696D65725F636F756E743A1C
:100A1000202530346C580A006B6579626F6172640E
:100A20005F6E6B726F3A2025580A006B6579626FB2
:100A30006172645F69646C653A2025580A006B65D1
:100A400079626F6172645F70726F746F636F6C3A1A
:100A50002025580A00686F73745F6B6579626F6157
:100A600072645F6C65647328293A2025580A000A6D
:100A7000092D20537461747573202D0A0047434378
:100A80003A20352E342E30204156522D4C494243C7
:100A90003A20322E302E30204156525F4152434888
:100AA0003A20617672350A004F5054494F4E533AFE
:100AB000204C55464120424F4F544D414749432019
:100AC0004D4F5553454B45592045585452414B4580
:100AD0005920434F4E534F4C4520434F4D4D414EAF
:100AE00044204E4B524F20343039360A004255498B
:100AF0004C443A20756E6B6E6F776E202832303A18
:100B000033313A3039204A616E203234203230326B
:100B100030290A005649443A203078464545442851
:100B20006765656B6861636B29205049443A2030E2
:100B30007836303630284748363029205645523AE4
:100B4000203078303030310A00444553433A207425
:100B50002E6D2E6B2E206B6579626F61726420663C
:100B600069726D7761726520666F72204748363012
:100B70000A000A092D2056657273696F6E202D0ACE
:100B8000000A6D6F7573653A206F66660A000A6D1C
:100B90006F7573653A206F6E0A000A6B6579626F34
:100BA0006172643A206F66660A000A6B6579626F4B
:100BB0006172643A206F6E0A000A6D61747269781E
:100BC0003A206F66660A000A6D61747269783A208D
:100BD0006F6E0A000A64656275673A206F6E0A00DC
:100BE0000A64656275673A206F66660A000A0A62DF
:100BF0006F6F746C6F616465722E2E2E2000433E01
:100C000020006565636F6E6669673A0A000011240B
:100C10001FBECFEFDAE0DEBFCDBF04B603FE27C0B4
:100C20008091E6019091E701A091E801B091E9017E
:100C30008730904BA740B04BD1F41092E601109250
:100C4000E7011092E8011092E90114BE84B7877F92
:100C500084BF0FB6F894A895809160008861809356
:100C60006000109260000FBEE0E0F8E3099511E02B
:100C7000A0E0B1E0EAEEF4E502C005900D92A833E1
:100C8000B107D9F721E0A8E3B1E001C01D92A63E6B
:100C9000B207E1F70E947E0B0C94732A0C940000BB
:100CA000FF93EF93E0913801F0913901309709F00B
:100CB0000995EF91FF910895FC018591803011F025
:100CC000EFDFFBCF0895FF27E0E230E247FF0CC0E3
:100CD000419597FF09C0EDE26095709580959095DC
:100CE000611D711D811D911D27FF02C0219530E3FB
:100CF00050E2AA27660F771F881F991FAA1FA41703
:100D000010F0A41B63955A95A9F7AA3008F0A95FC3
:100D1000A05DAF93F395611571058105910541F7CC
:100D2000ED3211F4EF93F395F21718F43F93F39526
:100D3000FBCF8F91B5DFFA95E1F70895E991F9912D
:100D40008591803021F0853219F0AADFF9CF08951E
:100D500020E0E89455915532C1F3503311F4689472
:100D600055915A3348F4505390F3220F022E220F1C
:100D7000220F200D250FF4CF0EF421958991999122
:100D8000533619F3533729F1533559F1BC018827EC
:100D90009927E8945C3621F489919991689455914A
:100DA000543639F446EF7EF077FF0DC08FEF9FEF9A
:100DB0000AC055374AE039F0583540E121F0523643
:100DC00042E009F00895FF93EF937DDFEF91FF91EB
:100DD000B7CFFF93EF93FC0181918030B9F360DFCF
:100DE000FBCFFF93EF9368DFF1CFDF93CF93CDB7C6
:100DF000DEB72596A3DFCF91DF910895CF93DF93E0
:100E000061111FC0EC010E94AF1C80729A8199236E
:100E100051F0882319F085E390E002C089E290E068
:100E20000E940D1C0AC0811104C089E290E00E945A
:100E30005D1C85E390E00E945D1CDF91CF910C94D6
:100E4000E91CDF91CF910895662319F0613041F0DC
:100E50000EC0FC01828181110DC08EEF90E00895DB
:100E6000FC018281811109C080EE90E0089580E04C
:100E700090E008958FEF90E0089581EE90E008955E
:100E800026E4829FC0011124FC012EE0729FE00D38
:100E9000F11D1124E60FF11DEE5DFE4F84910895C2
:100EA000E82FF0E0EE0FFF1FE856F0408591949197
:100EB00008958AB1807D8AB98BB1807D8BB9089500
:100EC0000E94590780B38C7F80BB81B3836081BB54
:100ED0006E98769A8AB18F728AB98BB1806D8BB910
:100EE00087B18F7387B988B1806C88B984B18470F9
:100EF00084B985B18B6F85B9E4E4F1E0AAE3B1E090
:100F0000119211921D921D9281E0EE34F807C1F703
:100F10000895BF92CF92DF92EF92FF920F931F93AB
:100F2000CF93DF930AE311E0E801D12CCC24C394E2
:100F3000A5E0BA2EB7EDEB2EB1E0FB2E82E0D8167D
:100F400091F08D1520F091E0D91651F006C0A3E084
:100F5000DA1661F0B4E0DB1661F0509A58980BC0D5
:100F6000519A599808C0529A5A9805C0539A5B985A
:100F700002C0559A5D9880EA8A95F1F72FB12170E9
:100F80002C2530E0799903C042E050E002C040E0F7
:100F900050E0C901842B952B669903C044E050E0D2
:100FA00002C040E050E0482B592B26B1022E000C25
:100FB000330B20953095C9018827990F881F9927F1
:100FC000F3E0880F991FFA95E1F7842B952B36995A
:100FD00003C0E0E1F0E002C0E0E0F0E08E2B9F2BE8
:100FE0001E9903C0E0E2F0E002C0E0E0F0E08E2BEA
:100FF0009F2B4C9903C060E470E002C060E070E099
:10100000862B972B199903C020E830E002C020E01E
:1010100030E0AC01422B532B189B0EC023B1022EA3
:10102000000C330B20953095C9018827990F881F34
:101030009927982F882702C080E091E0842B952B78
:101040001D9903C040E052E002C040E050E0842B14
:10105000952B1C9903C040E054E002C040E050E0F2
:10106000842B952B49B1042E000C550B40955095BF
:101070009A012227330F221F3327322F2227330FC3
:10108000330F330F282B392B4E9903C080E090E1AA
:1010900002C080E090E0282B392B1B9903C040E070
:1010A00050E202C040E050E0242B352B888199812A
:1010B0008217930741F139832883809100018823A7
:1010C00001F18091C70180FF04C08CED91E00E9486
:1010D0005C068091C70180FF0CC0809100011F92C7
:1010E0008F93FF92EF920E94F5060F900F900F9052
:1010F0000F908091C70180FF04C085ED91E00E94B0
:101100005C06B09200010E945907D394229695E0A4
:10111000D91214CF809100018823C1F081508093AF
:101120000001882339F0AFE9BFE01197F1F700C063
:1011300000000CC0E4E4F1E0D8018D919D918D0197
:1011400081939193B1E004341B07B1F781E0DF9103
:10115000CF911F910F91FF90EF90DF90CF90BF90B4
:101160000895E82FF0E0EE0FFF1FEC5BFE4F80814B
:1011700091810895CF92DF92EF92FF920F931F9388
:10118000CF93DF938EEB91E00E945C0684E4E82E1F
:1011900081E0F82EC0E0D0E099EBC92E91E0D92E85
:1011A00000EB11E0DF93CF93DF92CF920E94F50620
:1011B00086EB91E00E945C06F701819191917F019D
:1011C0000E94601E9F938F931F930F930E94F506BA
:1011D0008EEA91E00E945C0621968DB79EB7089634
:1011E0000FB6F8949EBF0FBE8DBFC530D105D1F6A6
:1011F000DF91CF911F910F91FF90EF90DF90CF90F3
:10120000089581FF02C0229A01C022982A98089569
:101210008091610108959FB7F894109250019FBF8B
:101220009091DD01943009F057C09091E9009F70D2
:101230003091EC00232F217030FD20E8922B24E028
:101240002093E9002091EB0020FF43C02091EE00A5
:1012500027FF3FC020914E01222321F02091E8007A
:1012600025FF37C010924E0126E03091E80035FD91
:1012700015C03091DD01343061F53091EB0035FD62
:1012800028C0215021F481E080934E0122C0EFE973
:10129000FFE03197F1F700C00000E7CF8093F10045
:1012A0008091E80085FD0AC08091E80080FFFCCFB6
:1012B0008091E8008E778093E80006C08FB7F8949D
:1012C00021E0209350018FBF9F709093E90080E050
:1012D00008959F709093E9008FEF0895CF93DF9367
:1012E00000D01F92CDB7DEB79C018091DD01843024
:1012F00019F593E099833B832A839093E9008FEF5C
:101300009091E800815095FD06C095ED9A95F1F712
:1013100000008111F5CF8091E80085FF0DC040E00D
:1013200050E063E070E0CE0101960E943B0C80919A
:10133000E8008E778093E8000F900F900F90DF9178
:10134000CF910895CF93DF9300D01F92CDB7DEB732
:101350002091DD01243021F522E029839B838A83BB
:1013600083E08093E9008FEF9091E800815095FD34
:1013700006C095ED9A95F1F700008111F5CF8091A7
:10138000E80085FF0DC040E050E063E070E0CE0172
:1013900001960E943B0C8091E8008E778093E800D4
:1013A0000F900F900F90DF91CF9108952091DD0164
:1013B0002430F1F422E02093E9002FEF3091E8008F
:1013C000215035FD06C035ED3A95F1F700002111A9
:1013D000F5CF2091E80025FF0BC040E050E065E02C
:1013E00070E00E943B0C8091E8008E778093E800CB
:1013F0000895CF93DF932091DD01243009F048C098
:10140000EC0180910B018823E1F080910C0188238D
:10141000C1F085E08093E9008FEF9091E800815062
:1014200095FD06C095E19A95F1F700008111F5CF81
:101430008091E80085FF2CC040E050E060E170E062
:1014400017C081E08093E9008FEF9091E800815010
:1014500095FD06C095ED9A95F1F700008111F5CF45
:101460008091E80085FF14C040E050E068E070E043
:10147000CE010E943B0C8091E8008E778093E800BB
:1014800080E1FE01A1E5B1E001900D928A95E1F7BE
:10149000DF91CF9108958CE192E00E945C068091EB
:1014A000DC01811109C00E94CC0D0E94290E80919F
:1014B000E20084608093E200089588E192E00E9457
:1014C0005C061092DC01089584E192E00C945C06C5
:1014D00080E192E00C945C068CE092E00E945C0655
:1014E0000C94B41E20914F012F5F822F62E30E9463
:1014F000082A992319F020934F01089510924F0163
:1015000080915001882371F18091DD01843041F593
:101510008091E9008F702091EC00922F917020FD56
:1015200090E8892B94E09093E9009091EB0090FF74
:1015300014C09091EE0097FF10C09091E80095FFC5
:1015400003C01092F100F9CF9091E80090FF05C020
:101550009091E8009E779093E8008F708093E90067
:1015600010925001089542E061EC81E00E94450D27
:1015700042E061EC82E00E94450D42E061EC83E0D4
:101580000E94450D42E261EC84E00E94450D42E17B
:1015900061EC85E00C94450D8091DF01833009F406
:1015A00055C030F4813071F0823009F48EC0089556
:1015B0008A3009F47AC08B3009F460C0893009F0B0
:1015C0009CC020C08091DE01813A09F096C08091D4
:1015D000E800877F8093E8008091E2019091E30129
:1015E000892B21F460E181E591E003C060E080E0B7
:1015F00090E070E00E94860C8091E8008B778093E9
:10160000E80008958091DE01813209F076C0809172
:10161000E2019091E301009719F0049709F06DC081
:101620008091E800877F8093E8008091E80082FD48
:1016300005C08091DD018111F8CF5FC08091F1007C
:10164000809361018091E8008B7753C08091DE0127
:10165000813A09F052C08091E2019091E301892B17
:1016600009F04BC08091E800877F8093E80080916B
:10167000E80080FFFCCF80910B0136C08091DE0135
:101680008132D9F58091E2019091E301892BA9F58E
:101690008091E800877F8093E8000E947A0D809116
:1016A000E00180930B010C94AE168091DE01813233
:1016B00021F58091E800877F8093E8000E947A0DF1
:1016C0008091E1018093620108958091DE01813A69
:1016D000A1F48091E800877F8093E8008091E80082
:1016E00080FFFCCF809162018093F1008091E8003F
:1016F0008E778093E8000C947A0D089584B7877FE5
:1017000084BF0FB6F894A89580916000886180939B
:101710006000109260000FBE90E080E80FB6F89471
:1017200080936100909361000FBE0E9445110E945A
:10173000CC0D0E94290E8091E20084608093E2002B
:101740008BE099E00E94491E78948091DD018430FD
:10175000E1F78BEF91E00E945C060E94471181E067
:1017600091E00E94B3108AEE91E00E945C068091A5
:10177000DD01853089F486EE91E00E945C060E94CE
:10178000731E8091DB01882391F30E949F1E8823A2
:1017900071F30E94250CEBCF0E947511E8CF292F21
:1017A000332723303105C9F060F42130310581F051
:1017B0002230310509F041C08DE890E024E432E0A8
:1017C00040C021323105E1F02232310531F135C01E
:1017D00082E190E021ED32E034C09927813091051B
:1017E00049F028F0029749F5E0E2F2E005C0E0E4B4
:1017F000F2E002C0ECE2F2E0849190E09F0121C0AF
:101800006530D8F4E62FF0E0EE0FFF1FEC5DFE4FE1
:101810002081318189E090E014C0653070F470E07F
:10182000FB01EE0FFF1FE65EFE4F20813181FB01C1
:10183000EB5EFE4F808190E004C080E090E020E00D
:1018400030E0FA0131832083089580E189BD82E18F
:1018500089BD09B400FEFDCF8091D8008F7D8093B3
:10186000D8008091E00082608093E0008091E000E9
:1018700081FDFCCF0895CF92DF92EF92FF920F93FC
:101880001F93CF93DF93EC018B017A010E94990D96
:10189000811133C0E114F10439F0F70180819181A5
:1018A000081B190BC80FD91FC12CD12C011511050C
:1018B00019F18091E80085FD16C08091E8008E77CF
:1018C0008093E800E114F10449F0F70180819181EF
:1018D000C80ED91ED182C08285E00FC00E94990D2A
:1018E000882321F30AC089918093F10001501109E6
:1018F000FFEFCF1ADF0ADACF80E0DF91CF911F919F
:101900000F91FF90EF90DF90CF9008952091E40128
:101910003091E5012617370748F06115710539F454
:101920002091E8002E772093E80001C0B901FC0166
:1019300020E06115710579F18091DD018823F1F1D5
:101940008530F1F18091E80083FD3CC08091E80092
:1019500082FD2EC08091E80080FFEBCF2091F30044
:101960008091F20090E0922B6115710551F0883062
:10197000910538F421912093F1006150710901968D
:10198000F3CF21E0089709F020E08091E8008E77FE
:101990008093E800CECF2111CFCF0AC08091DD0126
:1019A000882361F0853061F08091E80083FD0AC0F2
:1019B0008091E80082FFF2CF80E0089582E00895F0
:1019C00083E0089581E008952091E4013091E501DC
:1019D0002617370748F06115710539F42091E800A2
:1019E0002E772093E80001C0B901FC0120E06115C9
:1019F000710591F18091DD01882309F440C08530A3
:101A000009F43FC08091E80083FD3DC08091E8006B
:101A100082FD2FC08091E80080FFE9CF2091F30084
:101A20008091F20090E0922B6115710559F0883099
:101A3000910540F424912093F10031966150710991
:101A40000196F2CF21E0089709F020E08091E800AC
:101A50008E778093E800CBCF2111CCCF0AC0809144
:101A6000DD01882361F0853061F08091E80083FD1D
:101A70000AC08091E80082FFF2CF80E0089582E002
:101A8000089583E0089581E00895982F973068F5D0
:101A90009093E900981739F07091EC002091ED00D7
:101AA0005091F00003C0242F762F50E021FD02C09A
:101AB0009F5FECCF3091EB003E7F3093EB00309195
:101AC000ED003D7F3093ED003091EB0031603093BD
:101AD000EB007093EC002093ED005093F000209108
:101AE000EE0027FDE5CF80E008958F708093E90038
:101AF00081E008958091DE0187FF11C08091E800A8
:101B000082FD05C08091DD018111F8CF11C0809167
:101B1000E8008B770BC08091DD01882349F080912C
:101B2000E80080FFF8CF8091E8008E778093E8008E
:101B300008952091E4003091E50095E64091EC0095
:101B4000842F817040FF23C08091E80080FD1DC07C
:101B50008091DD01882399F0853099F08091EB0028
:101B600085FD11C04091E4005091E5002417350730
:101B700029F3915011F09A01E1CF84E0089582E0B9
:101B8000089583E0089581E0089580E008954091EC
:101B9000E80042FFDDCF08950E943A0E0E94420EF7
:101BA000E0EEF0E0808181608083E8EDF0E080810C
:101BB0008F77808319BCA7EDB0E08C918E7F8C93DA
:101BC00080818F7E80831092DC0108950F931F9394
:101BD000CF93DF930E943A0E0E94420EC8EDD0E0F0
:101BE00088818F77888388818068888388818F7DCA
:101BF000888319BC1092DD011092D9011092DB018B
:101C00001092DA0100EE10E0F80180818B7F808372
:101C100088818160888342E060E080E00E94450D19
:101C2000E1EEF0E080818E7F8083E2EEF0E0808163
:101C300081608083808188608083F80180818E7FCD
:101C40008083888180618883DF91CF911F910F917C
:101C50000895E8EDF0E080818F7E8083E7EDF0E08D
:101C600080818160808384E082BF81E08093DC0199
:101C70000C94E60DE8EDF0E080818E7F8083109279
:101C8000E20008951092DA001092E10008951F9288
:101C90000F920FB60F9211242F933F934F935F93A0
:101CA0006F937F938F939F93AF93BF93EF93FF9324
:101CB0008091E10082FF0BC08091E20082FF07C0AB
:101CC0008091E1008B7F8093E1000E94720A8091F5
:101CD000DA0080FF1FC08091D80080FF1BC0809178
:101CE000DA008E7F8093DA008091D90080FF0DC0EA
:101CF00080E189BD82E189BD09B400FEFDCF81E0AC
:101D00008093DD010E944B0A05C019BC1092DD01D1
:101D10000E945D0A8091E10080FF19C08091E2007D
:101D200080FF15C08091E2008E7F8093E200809159
:101D3000E20080618093E2008091D800806280930D
:101D4000D80019BC85E08093DD010E94680A80916B
:101D5000E10084FF30C08091E20084FF2CC080E16C
:101D600089BD82E189BD09B400FEFDCF8091D80014
:101D70008F7D8093D8008091E1008F7E8093E10079
:101D80008091E2008F7E8093E2008091E20081608A
:101D90008093E2008091D901882311F084E007C08C
:101DA0008091E30087FD02C081E001C083E0809361
:101DB000DD010E946C0A8091E10083FF29C08091BF
:101DC000E20083FF25C08091E100877F8093E100DE
:101DD00082E08093DD011092D9018091E1008E7F35
:101DE0008093E1008091E2008E7F8093E2008091F9
:101DF000E20080618093E20042E060E080E00E94C7
:101E0000450D8091F00088608093F0000E94640A84
:101E1000FF91EF91BF91AF919F918F917F916F91C2
:101E20005F914F913F912F910F900FBE0F901F9098
:101E300018951F920F920FB60F9211242F933F9374
:101E40004F935F936F937F938F939F93AF93BF93C2
:101E5000CF93DF93EF93FF93C091E900CF70809110
:101E6000EC00D82FD17080FDD0E81092E90080916D
:101E7000F000877F8093F00078940E945D0F1092AD
:101E8000E9008091F00088608093F000CD2BCF7046
:101E9000C093E900FF91EF91DF91CF91BF91AF9196
:101EA0009F918F917F916F915F914F913F912F9172
:101EB0000F900FBE0F901F9018951F93CF93DF9335
:101EC000CDB7DEB7AA970FB6F894DEBF0FBECDBF71
:101ED000EEEDF1E08091F100819321E0E63EF20722
:101EE000C9F70E94CC0A8091E80083FF24C1809149
:101EF000DE019091DF01492F50E04A30510508F092
:101F00001AC1FA01EA5AFF4F0C94282A803881F04E
:101F1000823809F010C18091E2018F708093E9004E
:101F20008091EB0085FB882780F91092E90006C0BC
:101F30008091DA019091DB01911182609091E8002B
:101F4000977F9093E8008093F1001092F100C8C051
:101F5000282F2D7F09F0EFC0882319F0823061F01F
:101F6000EAC08091E001813009F0E5C0933009F0CA
:101F700080E08093DB012BC08091E001811127C0BC
:101F80008091E2018F7009F4D6C08093E90020911E
:101F9000EB0020FF1CC0933021F48091EB008062A5
:101FA00014C09091EB0090619093EB0021E030E041
:101FB000A90102C0440F551F8A95E2F74093EA0039
:101FC0001092EA008091EB0088608093EB00109201
:101FD000E9008091E800877F86C08111ACC0109134
:101FE000E0011F778091E3008078812B8093E300EC
:101FF0008091E800877F8093E8000E947A0D8091AD
:10200000E80080FFFCCF8091E30080688093E300CC
:10201000111102C082E001C083E08093DD018BC01A
:102020008058823008F087C08091E0019091E101F2
:102030008C3D53E0950779F583E08A838AE28983B2
:102040004FB7F894DE01139620E03EE051E2E32F13
:10205000F0E050935700E49120FF03C0E295EF7049
:102060003F5FEF708E2F90E0EA3010F0C79601C00E
:10207000C0968D939D932F5F243149F74FBF809178
:10208000E800877F8093E8006AE270E0CE01019665
:102090000E94860C14C0AE014F5F5F4F6091E20159
:1020A0000E94CF0BBC01892B09F445C09091E80038
:1020B000977F9093E80089819A810E94E40C809137
:1020C000E8008B778093E80036C08038A1F58091D6
:1020D000E800877F8093E8008091D9018093F10028
:1020E0008091E8008E778093E8000E947A0D23C0EB
:1020F000811121C08091E0019091E101992702971F
:10210000D4F48091E800877F8093E8008091E0011B
:102110008093D9010E947A0D8091D901811106C066
:102120008091E30087FD02C081E001C084E08093DC
:10213000DD010E94B30A8091E80083FF0AC080910C
:10214000E800877F8093E8008091EB0080628093B5
:10215000EB00AA960FB6F894DEBF0FBECDBFDF919D
:10216000CF911F910895909368018093670108951E
:10217000E0916701F0916801309721F00190F081C2
:10218000E02D099480E00895EF92FF920F931F9342
:10219000CF93DF93E0916701F09168013097B1F13F
:1021A0008C010280F381E02D09958091C70182FFA7
:1021B0002DC080FF04C086E094E00E945C06E80128
:1021C00010E180E0E82E84E0F82E8091C70180FFC6
:1021D0000BC088811F928F93FF92EF920E94F506A9
:1021E0000F900F900F900F90115021961111EDCF7D
:1021F0008091C70180FF0AC08EEF93E0DF91CF91FD
:102200001F910F91FF90EF900C945C06DF91CF919E
:102210001F910F91FF90EF900895E0916701F09169
:102220006801309721F00480F581E02D099408952C
:1022300020916501309166012817390771F090935C
:10224000660180936501E0916701F0916801309724
:1022500021F00680F781E02D099408952091630113
:10226000309164012817390771F0909364018093CD
:102270006301E0916701F0916801309721F00084DB
:10228000F185E02D0994089508950C9444110E945D
:10229000DF1E0E9460070C94AD1FCF93C82F809162
:1022A000C70182FF1EC080FF04C08FE194E00E943E
:1022B0005C068091C70180FF0CC01F92CF938AE11A
:1022C00094E09F938F930E94F5060F900F900F90CC
:1022D0000F908091C70180FF04C088E194E00E94C4
:1022E0005C068C2FCF910C9401095F926F927F92C4
:1022F0008F929F92AF92BF92CF92DF92EF92FF9216
:102300000F931F93CF93DF93CDB7DEB72A970FB606
:10231000F894DEBF0FBECDBF0E9489079AE6692EF2
:1023200091E0792E00E010E088248394912C502EC7
:10233000802F0E94B1086C01F301A190B1903F0180
:10234000A826B926A114B104B1F40F5F1F4F0530C0
:10235000110569F78FEF89838A831B820E94E81E2B
:102360008160782F9D838C8349815A816B818D8117
:102370000E942D1239C08091C70181FD0E94BA08C8
:1023800080E090E07401082E02C0EE0CFF1C0A945D
:10239000E2F795012E213F21232B09F18E835F82E5
:1023A000CE20DF2081E0CD2809F480E088870E94DC
:1023B000E81E8160782F9A8789874E815F816885C2
:1023C0008A850E942D12000F111FF801E659FE4F59
:1023D00080819181E826F926F182E08205C001968C
:1023E0008E30910579F6B1CF0E94FC220E94B81080
:1023F000909169018917D9F00E94B8108093690102
:102400002A960FB6F894DEBF0FBECDBFDF91CF91F5
:102410001F910F91FF90EF90DF90CF90BF90AF9002
:102420009F908F907F906F905F900C944D112A96A3
:102430000FB6F894DEBF0FBECDBFDF91CF911F91D5
:102440000F91FF90EF90DF90CF90BF90AF909F9053
:102450008F907F906F905F900895CF93DF93CDB76B
:10246000DEB72B970FB6F894DEBF0FBECDBF4F83FC
:10247000588769877A878B87DE01119686E0FD0190
:1024800011928A95E9F785E0FE01379601900D9249
:102490008A95E1F749815A816B817C818D819E818A
:1024A0000E9467192B960FB6F894DEBF0FBECDBF02
:1024B000DF91CF910895CF93882309F4C2C0C82F2C
:1024C000823859F40E94B81081FDBBC089E30E9494
:1024D0000D1C0E94E91C89E30CC0833879F40E942A
:1024E000B81080FDAEC083E50E940D1C0E94E91C5F
:1024F00083E50E945D1CCF910C94E91C843859F44B
:102500000E94B81082FD9DC087E40E940D1C0E94AD
:10251000E91C87E4EECF8CEF8C0F813A48F48C2FC6
:102520000E94822781118DC08C2F0E940D1CE3CF49
:1025300080E28C0F883048F4C77081E001C0880FBA
:10254000CA95EAF70E94B21CD6CF8BE58C0F833078
:1025500078F4C53A29F0C63A31F083E890E005C036
:1025600081E890E002C082E890E0CF910C941811CD
:1025700088E58C0F833108F064C0C83A39F1C93A54
:1025800041F1CA3A49F1CB3A51F1CC3A59F1CD3A3D
:1025900061F1C03B69F1CE3A71F1CF3A79F1C13BBB
:1025A00081F1C23B89F1C33B91F1C43B99F1C53B39
:1025B000A1F1C63BA9F1C73BB1F1C83BB9F1C93B99
:1025C000C1F1CA3BC9F180E090E038C082EE90E0F2
:1025D00035C089EE90E032C08AEE90E02FC085EBE6
:1025E00090E02CC086EB90E029C087EB90E026C0FD
:1025F0008CEC90E023C08DEC90E020C083E891E06B
:102600001DC08AE891E01AC082E991E017C084E910
:1026100091E014C081E292E011C083E292E00EC02A
:1026200084E292E00BC085E292E008C086E292E08C
:1026300005C087E292E002C08AE292E0CF910C945A
:102640002E11CF910895882309F44BC0823859F494
:102650000E94B81081FF45C089E30E940D1C0E94B2
:10266000E91C89E30CC0833871F40E94B81080FF24
:1026700038C083E50E940D1C0E94E91C83E50E947E
:102680005D1C0C94E91C843859F40E94B81082FF38
:1026900028C087E40E940D1C0E94E91C87E4EFCF4C
:1026A0009CEF980F913A58F390E2980F983050F4BD
:1026B000877091E001C0990F8A95EAF7892F0E94EF
:1026C000B81CDFCF9BE5980F933020F480E090E0BA
:1026D0000C941811885A833120F480E090E00C9417
:1026E0002E110895882321F00E94B21C0C94E91C3D
:1026F0000895882321F00E94B81C0C94E91C0895C9
:10270000CF92DF92EF92FF920F931F93CF93DF93BD
:1027100000D000D01F92CDB7DEB76C0185E0F60186
:10272000DE01119601900D928A95E1F7F601208164
:10273000818143815481452B31F08F3F31F491E009
:102740002F3F19F403C091E001C090E090FDE6C274
:10275000F601F280E580E2949FE0E92229838A83F2
:1027600089819A810E94CC1B8C010E94CB1B0E9404
:10277000921AE12FE295EF708E2F90E0FC01E05A63
:10278000FF4F0C94282A812F807F1F70882311F01F
:102790001295107FFF2049F0112309F433C2812FD5
:1027A0000E94C21C0E94E91C2DC2802F0E9423138C
:1027B000112309F4B3C2812F0E94C81C0F900F90FF
:1027C0000F900F900F90DF91CF911F910F91FF907D
:1027D000EF90DF90CF900C94E91C812F807F1F70C9
:1027E000803211F01295107F002319F0013009F1A9
:1027F0002BC0FF20A9F0EE2059F1F1E0812FEF125C
:1028000028C00F900F900F900F900F90DF91CF91F5
:102810001F910F91FF90EF90DF90CF900C94D21CFE
:10282000EE2021F081E0E81609F478C20E94D51C60
:102830002DC0FF20E9F0E5E0EE1508F46FC20E941C
:10284000AF1C812329F022C0FF20F1F0E11015C058
:10285000812F0F900F900F900F900F90DF91CF91DD
:102860001F910F91FF90EF90DF90CF900C94721317
:10287000F4E0FE1508F452C209C0F601858180FF1C
:10288000C1C18F708583E4CFE110CFC1812F42C1D8
:10289000812F86958695837019F0813049F03EC26C
:1028A000FF2019F0C801937009C280E090E006C2D1
:1028B000FF2019F0C801937002C080E090E00F90F3
:1028C0000F900F900F900F90DF91CF911F910F916C
:1028D000FF90EF90DF90CF900C942E11802FFF206F
:1028E00019F00E94822102C00E94EA210F900F90ED
:1028F0000F900F900F90DF91CF911F910F91FF904C
:10290000EF90DF90CF900C946F22812F837009F0AD
:1029100070C0F11003C2202F229526952770220F38
:10292000220F602F6F70862F90E0A0E0B0E06C0166
:102930007D01022E04C0CC0CDD1CEE1CFF1C0A9491
:10294000D2F704FF12C08FE090E0A0E0B0E004C036
:10295000880F991FAA1FBB1F2A95D2F7BC01CD0172
:10296000609570958095909503C060E070E0CB0114
:102970001695169513701230B1F040F56C297D292B
:102980008E299F29113031F10F900F900F900F90E9
:102990000F90DF91CF911F910F91FF90EF90DF90FB
:1029A000CF900C94B91A6C297D298E299F290F90FC
:1029B0000F900F900F900F90DF91CF911F910F917B
:1029C000FF90EF90DF90CF900C94D51A0E94B91A27
:1029D000C701B6010F900F900F900F900F90DF91ED
:1029E000CF911F910F91FF90EF90DF90CF900C94BB
:1029F0009D1AFF2019F0812F817001C086958823D0
:102A000009F48CC1202F229526952770220F220FC2
:102A1000602F6F70862F90E0A0E0B0E06C017D0128
:102A2000022E04C0CC0CDD1CEE1CFF1C0A94D2F755
:102A300004FF12C08FE090E0A0E0B0E004C0880F77
:102A4000991FAA1FBB1F2A95D2F7BC01CD01609523
:102A500070958095909503C060E070E0CB0116956D
:102A6000169513701230B1F040F56C297D298E292E
:102A70009F29113031F10F900F900F900F900F9010
:102A8000DF91CF911F910F91FF90EF90DF90CF904A
:102A90000C94931B6C297D298E299F290F900F90F0
:102AA0000F900F900F90DF91CF911F910F91FF909A
:102AB000EF90DF90CF900C94AF1B0E94931BC70147
:102AC000B6010F900F900F900F900F90DF91CF9164
:102AD0001F910F91FF90EF90DF90CF900C94771B98
:102AE000003F39F118F4003E48F487C0023F09F472
:102AF0004FC0D8F1033F09F45EC07FC00F70812F33
:102B00008F71FF2021F00E94101B802FA2CE0E9407
:102B1000311B802F0F900F900F900F900F90DF912F
:102B2000CF911F910F91FF90EF90DF90CF900C9479
:102B30007913FF20A9F0F4E0FE1508F4EFC0812F0F
:102B40008F710F900F900F900F900F90DF91CF919A
:102B50001F910F91FF90EF90DF90CF900C94561B38
:102B600085E08E1508F4DAC0EACFFF2099F0812FB6
:102B70008F710F900F900F900F900F90DF91CF916A
:102B80001F910F91FF90EF90DF90CF900C94101B4E
:102B9000FF2069F3812F8F710F900F900F900F908E
:102BA0000F90DF91CF911F910F91FF90EF90DF90E9
:102BB000CF900C94311BFF2089F0812F8F710F90E3
:102BC0000F900F900F900F90DF91CF911F910F9169
:102BD000FF90EF90DF90CF900C94FB1A0F900F9026
:102BE0000F900F900F90DF91CF911F910F91FF9059
:102BF000EF90DF90CF900C94F11AFF2099F0EE2027
:102C000009F4B5CF802F0F900F900F900F900F9079
:102C1000DF91CF911F910F91FF90EF90DF90CF90B8
:102C20000C945B12EE2009F4B5CF802F0F900F901B
:102C30000F900F900F90DF91CF911F910F91FF9008
:102C4000EF90DF90CF900C942313412F4F70602FA3
:102C5000C6010E9424070F900F900F900F900F90C5
:102C6000DF91CF911F910F91FF90EF90DF90CF9068
:102C70000C94151A1F70123099F028F4112369F181
:102C8000113031F04BC0133081F0143099F046C050
:102C9000FF2019F084E890E011C085E890E00EC0B4
:102CA000FF20D9F386E890E009C0FF20B1F387E860
:102CB00090E004C0FF2089F388E890E00F900F9027
:102CC0000F900F900F90DF91CF911F910F91FF9078
:102CD000EF90DF90CF900C941811FF20F9F08091C5
:102CE000D80184FB222720F991E0922790FB84F9F8
:102CF0008093D80113C0412F4F70602FC6010F90F1
:102D00000F900F900F900F90DF91CF911F910F9127
:102D1000FF90EF90DF90CF900C94FE060F900F90F5
:102D20000F900F900F90DF91CF911F910F91FF9017
:102D3000EF90DF90CF9008950E94CF1C0E94A11CBD
:102D40000E94E91C0E94A1230E946F2280E090E073
:102D50000E94181180E090E00C942E110E94BF1C7C
:102D60000C949C160E94CC1B292F22952F702C307E
:102D700030F42A3048F42250223078F405C02C3048
:102D800041F02F3031F009C0803E48F0803F29F4F7
:102D900006C093FB882780F9089580E0089581E0BC
:102DA0000895CF93DF9300D000D01F92CDB7DEB748
:102DB0000F900F900F900F900F90DF91CF9108958B
:102DC000CF93DF9300D000D000D0CDB7DEB72696EA
:102DD0000FB6F894DEBF0FBECDBFDF91CF9108953F
:102DE0001F93CF93DF93C091740116E0809175011A
:102DF000C81799F0D0E01C9FF0011D9FF00D112421
:102E0000EA58FE4F408151816281738184819581AE
:102E10000E94E0162196C770E9CFDF91CF911F91F4
:102E200008954091A6015091A7016091A801709169
:102E3000A9018091AA019091AB010C94E016CF9367
:102E40008091AB0182958F7009F05FC08091A801DD
:102E5000882309F45AC080917401B0917501709172
:102E6000A601A091A7014091A9015091AA0191E06A
:102E70007F3F09F090E0692FC6E08B1709F445C049
:102E80004115510521F0AF3F21F020E003C021E0C2
:102E900001C0262F90E020FD35C0C89FF001C99FDA
:102EA000F00D1124EA58FE4F21812A132BC02081F6
:102EB000271328C02281211125C0238134812417A2
:102EC000350710F421503109241B350B283C3105FE
:102ED000C8F42091AB012F7020612093AB0126E054
:102EE000289FF001299FF00D1124E558FE4F8081A5
:102EF0008F708061808386EA91E00E948013CF9179
:102F00000C94F01601968770B8CFCF910895AF92C8
:102F1000BF92CF92DF92EF92FF920F931F93CF93C6
:102F2000DF93CDB7DEB761970FB6F894DEBF0FBE63
:102F3000CDBF8C0185E0F801DE011D9601900D9258
:102F40008A95E1F7D8014C9111965C9111971296F0
:102F5000EC903091A6016091A7018091A901909118
:102F6000AA01009731F06F3F31F421E03F3F19F49F
:102F700003C021E001C020E0B22FB170BB2E20FDC4
:102F800064C1F801C380D480A090A801AA2009F4EC
:102F9000C3C02091AB01C816D90628F0D601A81BE2
:102FA000B90BCD0104C0809590958C0D9D1DFF241B
:102FB000F394883C910580F0F12C207F09F09CC0AF
:102FC0007C2DD98AC88A6E2D89890E94D11686EAFD
:102FD00091E00E948013B4C0822F807F09F054C01A
:102FE000561314C0431312C0FE2CE1100FC02F70F3
:102FF00020612093AB010E94111786EA91E00E94A4
:1030000080138091AB01F80185834FC1CD2831F049
:103010005F3F31F481E04F3F19F403C081E001C00C
:1030200080E080FD03C081E08E2502C080E090E05A
:10303000F82FF170FF2E80FF1CC080917401209149
:10304000750136E0821709F40DC190E0389FF00158
:10305000399FF00D1124EA58FE4F6181561306C0C6
:103060006081461303C06281E61203C00196877037
:10307000E9CFFE2CEE2009F418C18091AB018160EC
:103080008093AB01F12C11C1561309C0431307C043
:10309000E11005C08091AB01F8018583B0C04D8778
:1030A0005E878D859E850E94B216882379F1EE2079
:1030B00069F12091AB01822F82958F7090E0029789
:1030C00074F08091A6019091A70198878F8319864B
:1030D000DB86CA862C87CE0107960E94801386E085
:1030E000F801A6EAB1E001900D928A95E1F70E94FD
:1030F0001F170E9411170DC0561761F14D875E878B
:103100008D859E850E94B216811138C0C8010E942B
:103110008013FF24F394C9C0C816D90608F446C02A
:10312000F601E81BF90BCF01883C910508F443C078
:10313000F12C7C2DD98AC88A6E2D89890E94D116DE
:10314000E6EAF1E086E0DF011D928A95E9F70E9448
:103150001117ABC04313D2CFE110D0CF8091AB0198
:10316000F8018583C8010E94801386E0E6EAF1E059
:10317000DF011D928A95E9F7FA2C97C0EE2031F213
:103180002091AB01822F82958F7090E002970CF412
:10319000A6CF8091A6019091A7019A8389831B8273
:1031A000DD82CC822E83CE01019697CF80959095BB
:1031B0008C0D9D1DB9CFFE2CEE2009F4A7CF561320
:1031C00033C0431331C02091AB0120FD24C0822FB6
:1031D00082958F70482F50E041155105E1F0D801DC
:1031E00015962C9315974F30510549F08F5F982F06
:1031F0009295907F822F8F70892B15968C93C801A2
:103200000E94801386E0F801A6EAB1E001900D92D9
:103210008A95E1F79CCF86E0F801A6EAB1E001903B
:103220000D928A95E1F741C04D875E878D859E8519
:103230000E94B216811153CF8091AB0181608093BF
:10324000AB01C8010E94801330C0EE2009F45ECFAC
:103250004D875E878D859E850E94B216882309F46E
:1032600055CF3DCF4D875E878D859E850E94CC1BB7
:10327000292F22952F70223028F49F7039F0811168
:1032800005C00BC0243028F49F7049F4805E88305C
:1032900020F0C8010E948013BF2CFB2C06C0D8016F
:1032A00015969C91907F91F7F8CF8F2D61960FB670
:1032B000F894DEBF0FBECDBFDF91CF911F910F916C
:1032C000FF90EF90DF90CF90BF90AF9008951F9345
:1032D000CF93DF93CDB7DEB72C970FB6F894DEBF50
:1032E0000FBECDBF4F83588769877A878B879C87AE
:1032F000CE0107960E9487178823D1F09F81888589
:103300002A853B85232B31F08F3F31F481E09F3FAD
:1033100019F403C081E001C080E080FD47C04F8107
:10332000588569857A858B859C850E94E0163EC00C
:1033300086E0FE013796DE01119601900D928A9586
:10334000E1F7FF81E8856A857B856115710531F0BC
:10335000EF3F31F481E0FF3F19F403C081E001C089
:1033600080E080FD23C02091750130E0C901019605
:10337000877099274091740150E084179507F1F107
:10338000F983EA837D836C8396E0929FD001939FBB
:10339000B00D1124AA58BE4FFE01319601900D9236
:1033A0009A95E1F7809375010E94F01616E08091DE
:1033B000740190917501891771F1189FC001112452
:1033C0008A589E4F0E948717882329F1E091740143
:1033D0001E9FF0011124EA58FE4F40815181628105
:1033E0007381848195810E94E0168091740190E040
:1033F00001968770992780937401D9CF0E94AE16E9
:103400001092750110927401E6EAF1E086E0DF01A6
:103410001D928A95E9F72C960FB6F894DEBF0FBE81
:10342000CDBFDF91CF911F910895EF92FF920F933F
:103430001F93CF93DF938C01892B09F46CC0F12C7F
:10344000EE24E394E8012196F8018491843740F456
:10345000843008F051C0813081F0823019F15BC0B6
:10346000853709F444C0A8F19CE7980F903708F01D
:1034700052C08F770E94231341C00E5F1F4FFE0181
:10348000849190E2980F983050F48770FE2D01C01F
:10349000FF0F8A95EAF78F2F0E94C21C14C00E946A
:1034A0005B122DC00E5F1F4FFE01849190E2980FBA
:1034B000983060F48770FE2D01C0FF0F8A95EAF7FF
:1034C0008F2F0E94C81C0E94E91C19C00E94231360
:1034D00016C00E5F1F4FFE01C491CC2381F08FE90F
:1034E0009FE00197F1F700C00000C150F6CF0E5FDA
:1034F0001F4FFE01F49003C00E945B128E018F2DBE
:10350000882309F49FCFEFE9FFE03197F1F700C07E
:1035100000008150F5CFDF91CF911F910F91FF9067
:10352000EF90089508956093B0017093B101809376
:10353000B2019093B3010C949C160F931F930091CA
:10354000B0011091B1012091B2013091B301DC01C1
:10355000CB01802B912BA22BB32B8093B0019093A6
:10356000B101A093B201B093B3011F910F910C94DC
:103570009C160F931F930091B0011091B1012091FF
:10358000B2013091B301DC01CB0180239123A2234E
:10359000B3238093B0019093B101A093B201B09393
:1035A000B3011F910F910C949C160F931F930091E0
:1035B000B0011091B1012091B2013091B301DC0151
:1035C000CB0180279127A227B3278093B001909346
:1035D000B101A093B201B093B3011F910F910C946C
:1035E0009C161092AC011092AD011092AE01109297
:1035F000AF010C949C1641E050E060E070E004C024
:10360000440F551F661F771F8A95D2F74093AC0170
:103610005093AD016093AE017093AF010C949C1672
:1036200041E050E060E070E004C0440F551F661FA9
:10363000771F8A95D2F78091AC019091AD01A0914E
:10364000AE01B091AF01482B592B6A2B7B2B4093D5
:10365000AC015093AD016093AE017093AF010C9437
:103660009C1641E050E060E070E004C0440F551F3C
:10367000661F771F8A95D2F7409550956095709593
:103680008091AC019091AD01A091AE01B091AF01DC
:10369000482359236A237B234093AC015093AD0107
:1036A0006093AE017093AF010C949C1641E050E022
:1036B00060E070E004C0440F551F661F771F8A95B5
:1036C000D2F78091AC019091AD01A091AE01B09183
:1036D000AF01482759276A277B274093AC015093B5
:1036E000AD016093AE017093AF010C949C160F93E3
:1036F0001F930091AC011091AD012091AE0130916A
:10370000AF01DC01CB01802B912BA22BB32B80933B
:10371000AC019093AD01A093AE01B093AF011F91A6
:103720000F910C949C160F931F930091AC01109174
:10373000AD012091AE013091AF01DC01CB018023BE
:103740009123A223B3238093AC019093AD01A09366
:10375000AE01B093AF011F910F910C949C160F9383
:103760001F930091AC011091AD012091AE013091F9
:10377000AF01DC01CB0180279127A227B3278093DB
:10378000AC019093AD01A093AE01B093AF011F9136
:103790000F910C949C160895CF92DF92EF92FF92B6
:1037A0000F931F93CF93DF938C01C090AC01D09007
:1037B000AD01E090AE01F090AF018091B001909129
:1037C000B101A091B201B091B301C82AD92AEA2A65
:1037D000FB2ACFE1D0E0D701C6010C2E04C0B6957C
:1037E000A795979587950A94D2F780FF07C0B801EF
:1037F0008C2F0E94D61D8130910531F4219758F706
:10380000B80180E00E94D61DDF91CF911F910F91EA
:10381000FF90EF90DF90CF90089590910B01992346
:1038200079F190910C01992359F1982F96959695DD
:1038300096959F30A0F4E0910D01F0910E01E90FF3
:10384000F11D877021E030E0A90102C0440F551F2F
:103850008A95E2F7CA019181892B8183089590911D
:10386000C70190FF29C01F928F9380E594E09F933A
:103870008F930E94F5060F900F900F900F90089570
:1038800020910D0130910E01F90132969FEF40E039
:103890005191851789F09F3F19F4511101C0942F60
:1038A0004F5F4E30A9F79F3F39F0F901E90FF11D45
:1038B00097FDFA9582830895089590910B019923BD
:1038C00081F190910C01992361F1982F969596952D
:1038D00096959F30A8F4E0910D01F0910E01E90F4B
:1038E000F11D877021E030E0A90102C0440F551F8F
:1038F0008A95E2F7CA018095918189238183089591
:103900009091C70190FF1CC01F928F9382E394E0B7
:103910009F938F930E94F5060F900F900F900F903A
:103920000895E0910D01F0910E019F01225F3F4F3C
:103930009281891301C012823196E217F307C1F711
:10394000089581E090E0E0910D01F0910E01E80F03
:10395000F91F1082019680319105A9F70895809191
:10396000C60108959091C601892B8093C6010895E0
:1039700080959091C60189238093C6010895109285
:10398000C60108959091C501892B8093C5010895C2
:1039900080959091C50189238093C5010895109267
:1039A000C50108958093B40108951092B40108955B
:1039B00080910D0190910E01FC0131969C01205FD8
:1039C0003F4F80E0919191118F5FE217F307D1F79C
:1039D0000895E0910D01F0910E018091C601808360
:1039E000E0910D01F0910E0190818091C501892B2C
:1039F00080838091B401882361F0E0910D01F09102
:103A00000E019081892B80830E94D81C8111109215
:103A1000B40180910D0190910E010C94C410CF93CC
:103A2000DF938D3B50F4883A10F5853AB8F4843032
:103A300090F4813009F46FC00BC0883E30F4803EB2
:103A400050F48F3B09F459C003C0803F08F051C0C7
:103A5000C0E0D0E0A7C0C82FD0E0A4C0853A09F4E8
:103A60005DC0863A09F45DC0C3E8D0E49BC0883AE3
:103A700009F45AC0893A09F45AC08A3A09F45AC07A
:103A80008B3A09F45AC08C3A09F45AC08B3B09F4BA
:103A90005AC08C3B09F45AC08D3A09F45AC0803B95
:103AA00009F45AC08E3A09F45AC08F3A09F45AC040
:103AB000813B09F45AC0823B09F45AC0833B09F4A4
:103AC0005AC0843B09F45AC0853B09F45AC0863B6E
:103AD00009F45AC0873B09F45AC0883B09F45AC01C
:103AE000893B09F45AC08A3B09F45AC0C0E0D4E4C7
:103AF00059C0C82FD0E0D06555C00E94AE162FEF38
:103B000080E792E0215080409040E1F700C0000043
:103B10000E94431F47C0C1E0D0E044C0C1E8D0E4E8
:103B200041C0C2E8D0E43EC0C2EED4E43BC0C9EE1E
:103B3000D4E438C0CAEED4E435C0C5EBD4E432C016
:103B4000C6EBD4E42FC0C3EBD4E42CC0C4EBD4E464
:103B500029C0C7EBD4E426C0CCECD4E423C0CDEC20
:103B6000D4E420C0C3E8D5E41DC0CAE8D5E41AC037
:103B7000C2E9D5E417C0C4E9D5E414C0C1E2D6E473
:103B800011C0C3E2D6E40EC0C4E2D6E40BC0C5E265
:103B9000D6E408C0C6E2D6E405C0C7E2D6E402C057
:103BA000CAE2D6E4CE01DF91CF9108950E9440078A
:103BB000803EA8F4803C00F5813309F45CC038F401
:103BC000893209F452C08A3209F45BC05FC089337C
:103BD000B1F08238A1F0853309F441C057C0833E6B
:103BE00041F128F4803E99F0823EB9F04FC0863E04
:103BF00031F1873E71F14AC00E94500708959091BB
:103C0000D80190FD02C091FF41C080EE3FC080917D
:103C1000D80180FFFACF89E339C08091D80182FFB3
:103C20000CC08091D80184FF02C080E02FC083EED9
:103C30002DC08091D80182FFF4CF82EE27C0809101
:103C4000D80183FF0AC08091D80184FDEECF87EEB2
:103C50001DC08091D80183FFF6CF86EE17C08091FA
:103C6000D80185FF06C089E211C08091D80185FF87
:103C7000FACF85E30BC08091D80186FF06C08AE2A7
:103C800005C08091D80186FFFACF81E30E940F1D05
:103C90000895909339018093380108958295982F63
:103CA000937344E0949F900111248C7C86958695B3
:103CB000282B822F8575880F2A7A2695822B0895C6
:103CC000CF93DF93D92F0E944E1EC82F8D2F0E94B5
:103CD0004E1E2C2F30E0322F2227A901482BCA017B
:103CE000DF91CF9108958091DD01843021F1109210
:103CF000C80120E488E190E00FB6F894A89580937D
:103D000060000FBE2093600083B7817F846083BF13
:103D100083B7816083BF7894889583B78E7F83BF94
:103D20000FB6F894A8958091600088618093600038
:103D3000109260000FBE089508950C949C1ECF93BE
:103D40000E949D1E0E9489070E949C1EC0E08C2F2D
:103D50000E94B108892B29F4CF5FC530C1F780E0FC
:103D600001C081E0CF9108950C94AE161F920F927E
:103D70000FB60F9211248F939F93AF93BF938091AF
:103D8000C801811113C08091C9019091CA01A0910D
:103D9000CB01B091CC014196A11DB11D8093C90109
:103DA0009093CA01A093CB01B093CC01BF91AF9186
:103DB0009F918F910F900FBE0F901F90189582E0EA
:103DC00084BD93E095BD9AEF97BD80936E000895F2
:103DD0002FB7F8948091C9019091CA01A091CB01AD
:103DE000B091CC012FBF0895CF92DF92EF92FF9256
:103DF0000F931F932FB7F8944091C9015091CA01B6
:103E00006091CB017091CC012FBF6A017B01EE2440
:103E1000FF248C0120E030E0C016D106E206F30654
:103E200010F4415051099A01281B390BC9011F9107
:103E30000F91FF90EF90DF90CF9008951F920F9217
:103E40000FB60F9211248F939F93AF93BF938091DE
:103E5000C9019091CA01A091CB01B091CC0101960A
:103E6000A11DB11D8093C9019093CA01A093CB01FC
:103E7000B093CC01BF91AF919F918F910F900FBEE6
:103E80000F901F9018950E94CC0DF8942FEF87EAA1
:103E900091E6215080409040E1F700C0000087E0AB
:103EA00090EBDC018093E6019093E701A093E80199
:103EB000B093E9019CE088E10FB6F894A89580934F
:103EC00060000FBE90936000FFCFCF92DF92EF9221
:103ED000FF920F931F93CF93DF93D82FC0E0EE2470
:103EE000E394F12C8C2F0E94B1086C0100E010E0EB
:103EF000C701002E02C0880F991F0A94E2F78C2197
:103F00009D21892B31F40F5F1F4F0E30110581F772
:103F100009C0602F7C2F80E00E9440078D13F3CFF3
:103F200081E004C0CF5FC530E9F680E0DF91CF913A
:103F30001F910F91FF90EF90DF90CF900895CF9356
:103F4000C82F8CE20E94651F882321F08C2FCF910F
:103F50000C94651F80E0CF910895CF930E94E920D3
:103F6000811102C00E94CF2085E794E00E945C0688
:103F7000C5E6C15049F00E9489078FE39CE901978B
:103F8000F1F700C00000F5CF8EE694E00E945C06D9
:103F900089E20E949F1F811100C18AE20E949F1F37
:103FA00081110E94CF2085E00E949F1F81110E94F5
:103FB000431F0E94F4208093C70187E00E949F1F47
:103FC0008823A9F18BE10E949F1F882351F08091E3
:103FD000C70181FB222720F991E0922790FB81F90C
:103FE0000EC08EE00E949F1F882361F08091C70160
:103FF00082FB222720F991E0922790FB82F980939F
:10400000C70115C080E10E949F1F9091C7018823BE
:1040100041F093FB222720F981E0822780FB93F96E
:1040200004C0892F809580FB90F99093C7010E946E
:10403000FC208093D80180EE0E949F1F882341F0CE
:104040008091D801982F909590FB80F98093D801AA
:1040500089E30E949F1F882359F08091D80181FB3A
:10406000222720F991E0922790FB81F98093D801D3
:1040700082EE0E949F1F882359F08091D80182FB15
:10408000222720F991E0922790FB82F98093D801B2
:1040900086EE0E949F1F882359F08091D80183FBF0
:1040A000222720F991E0922790FB83F98093D80191
:1040B00083EE0E949F1F882359F08091D80184FBD2
:1040C000222720F991E0922790FB84F98093D80170
:1040D00085E30E949F1F882359F08091D80185FBBA
:1040E000222720F991E0922790FB85F98093D8014F
:1040F00081E30E949F1F882359F08091D80186FB9D
:10410000222720F991E0922790FB86F98093D8012D
:1041100081E10E949F1F882359F08091D80187FB7D
:10412000222720F991E0922790FB87F98093D8010C
:104130008091D80187FB882780F980930C0187E262
:104140000E949F1FC82F8EE10E949F1F8111C26095
:104150008FE10E949F1F8111C46080E20E949F1F17
:104160008111C86081E20E949F1F8111C06182E2BB
:104170000E949F1F8111C06283E20E949F1F8111D4
:10418000C06484E20E949F1F8111C0686C2F70E0A0
:1041900080E090E0CF910C94931ACF9108956DEE4A
:1041A0007EEF80E090E00E945E2A60E082E090E096
:1041B0000E94502A60E083E090E00E94502A60E074
:1041C00084E090E00E94502A60E085E090E00C944A
:1041D000502A80E090E00E944A2A21E08D3E9E4FC6
:1041E00009F020E0822F089582E090E00C94422AAA
:1041F00083E090E00C94422A84E090E00C94422A00
:104200008091CF0180FF0BC06091120185E0689F13
:10421000B001112475956795759567952BC081FF41
:1042200009C06091120185E0689FB0011124759565
:10423000679520C082FF07C06091120185E0689FEA
:10424000B001112417C09091D0019923D1F0609151
:104250001101961788F72091120185E0289F90019F
:104260001124929FA001939F500D112470E0CA0168
:104270000E94142A6038710540F46115710519F423
:1042800006C065E070E0862F08958FE7089581E00D
:1042900008958091CF0180FF08C06091100170E007
:1042A000759567957595679521C081FF06C06091EA
:1042B000100170E07595679519C082FF04C0609188
:1042C000100170E010C09091D001992399F0609195
:1042D0000F019617A0F780911001899FC00111244A
:1042E00070E00E94142A6038710540F46115710570
:1042F00019F406C061E070E0862F08958FE70895F5
:1043000081E00895803F21F40E940021819504C03E
:10431000813F29F40E9400218093D3010895823FB8
:1043200021F40E940021819504C0833F29F40E945A
:1043300000218093D2010895893F19F40E944921F8
:1043400005C08A3F31F40E94492181958093D401B0
:1043500008958B3F21F40E944921819504C08C3F30
:1043600029F40E9449218093D5010895843F21F4C6
:104370008091D101816017C0853F21F48091D101E6
:10438000826011C0863F21F48091D10184600BC00E
:10439000873F21F48091D101886005C0883F31F4C6
:1043A0008091D10180618093D10108958D3F21F4E6
:1043B0008091CF0181600BC08E3F21F48091CF01AD
:1043C000826005C08F3F29F48091CF018460809383
:1043D000CF010895803F39F48091D30187FF6CC0ED
:1043E0001092D30169C0813F29F48091D30118163E
:1043F000BCF362C09091D201823F29F497FF5CC068
:104400001092D20159C0833F19F41916CCF354C04D
:10441000893F41F48091D40118160CF04DC01092E0
:10442000D4014AC08A3F29F48091D40187FF44C057
:10443000F6CF8B3F39F48091D50187FF3DC01092B4
:10444000D5013AC08C3F29F48091D5011816BCF3F0
:1044500033C0843F21F48091D1018E7F17C0853F06
:1044600021F48091D1018D7F11C0863F21F480918C
:10447000D1018B7F0BC0873F21F48091D101877FD1
:1044800005C0883F31F48091D1018F7E8093D101A6
:1044900013C08D3F21F48091CF018E7F0BC08E3FE2
:1044A00021F48091CF018D7F05C08F3F29F4809149
:1044B000CF018B7F8093CF018091D20181110EC0FB
:1044C0008091D30181110AC08091D401811106C06D
:1044D0008091D501811102C01092D0010895809180
:1044E000C70183FF7EC081EB94E00E945C0680914F
:1044F000D1011F928F938CEA94E09F938F930E9437
:10450000F5068AEA94E00E945C068091D201282F89
:10451000082E000C330B3F938F9387EA94E09F9310
:104520008F930E94F50685EA94E00E945C068091D4
:10453000D301282F082E000C330B3F938F9382EA70
:1045400094E09F938F930E94F50680EA94E00E9486
:104550005C068091D401282F082E000C330B3F936A
:104560008F938DE994E09F938F930E94F5068BE9DA
:1045700094E00E945C068091D501282F082E000C43
:10458000330B3F938F9388E994E09F938F930E941E
:10459000F50685E994E00E945C068091D0011F92A7
:1045A0008F9382E994E09F938F930E94F50680E9B0
:1045B00094E00E945C068091CF011F928F938DE85A
:1045C00094E09F938F930E94F5068AE894E00E94FE
:1045D0005C068DB79EB74C960FB6F8949EBF0FBE83
:1045E0008DBF81ED91E00E940D110E94E81E909315
:1045F000CE018093CD0108951F93CF93DF938091D7
:10460000CD019091CE010E94F41EAC019091D00199
:10461000992321F02091130130E006C0209114016C
:104620008AE0289F900111244217530708F485C09F
:104630008091D201C091D301D091D4011091D501C4
:10464000811107C0C11175C0D11173C0111171C0A2
:1046500074C09F3F19F09F5F9093D001181624F407
:104660000E9400218093D2018091D20187FF05C072
:104670000E94002181958093D2011C1624F40E948F
:1046800000218093D3018091D30187FF05C00E9450
:10469000002181958093D3016091D201662331F18D
:1046A000C091D301CC2311F1062E000C770B880B9F
:1046B000990B0E940F2923E333E343E35FE30E9456
:1046C00073290E94D7286093D2016C2FCC0F770BEF
:1046D000880B990B0E940F2923E333E343E35FE345
:1046E0000E9473290E94D7286093D3011D1624F4D9
:1046F0000E9449218093D4018091D40187FF05C095
:104700000E94492181958093D401111624F40E94BE
:1047100049218093D5018091D50187FF05C00E9472
:10472000492181958093D501DF91CF911F910C9400
:104730006F229F3F09F08FCFA0CFDF91CF911F91C4
:104740000895E1EDF1E085E0DF011D928A95E9F73A
:104750001092D0011092CF01089584ED96E00E944E
:104760005C061F9281E08F931F9285E08F9386E80D
:1047700096E09F938F930E94F5060F900F900F90F5
:104780000F900F900F9008958330E9F128F4813055
:1047900061F0823009F10895853009F462C008F4AF
:1047A00049C0863009F474C0089580911401262F01
:1047B00030E0280F311D2F3F310524F4680F60933E
:1047C000140103C08FEF80931401809114011F9294
:1047D0008F938FEB95E072C080911301262F30E00C
:1047E000280F311D2F3F310524F4680F609313010A
:1047F00003C08FEF80931301809113011F928F9359
:104800008DEA95E05BC080911201262F30E0280FE1
:10481000311D2F3F310524F4680F6093120103C04E
:104820008FEF80931201809112011F928F938AE97A
:1048300095E044C080911101262F30E0280F311DF2
:104840002F3F310524F4680F6093110103C08FEFEF
:1048500080931101809111011F928F9385E895E05B
:104860002DC080911001262F30E0280F311D2F3FE1
:10487000310524F4680F6093100103C08FEF80931B
:104880001001809110011F928F938CE695E016C065
:1048900080910F01262F30E0280F311D2F3F310569
:1048A00024F4680F60930F0103C08FEF80930F0112
:1048B00080910F011F928F9381E595E09F938F93D5
:1048C0000E94F5060F900F900F900F90089583307F
:1048D00081F128F4813059F08230D1F0089585308B
:1048E00009F449C0B8F1863009F456C008958091A2
:1048F0001401681720F4861B8093140102C01092E3
:104900001401809114011F928F9382E495E054C0AA
:1049100080911301681720F4861B8093130102C055
:1049200010921301809113011F928F9380E395E001
:1049300043C080911201681720F4861B80931201F6
:1049400002C010921201809112011F928F938DE18B
:1049500095E032C080911101681720F4861B809386
:10496000110102C010921101809111011F928F93C9
:1049700088E095E021C080911001681720F4861B23
:104980008093100102C010921001809110011F92BB
:104990008F938FEE94E010C080910F01681720F480
:1049A000861B80930F0102C010920F0180910F01AE
:1049B0001F928F9384ED94E09F938F930E94F5064E
:1049C0000F900F900F900F900895CF93C82F1F92C4
:1049D0008F9389ED97E09F938F930E94F50681E076
:1049E00090E0A0E0B0E0BC01CD0104C0660F771FED
:1049F000881F991FCA95D2F70E94931A0F900F90A3
:104A00000F900F90CF910C94AE16CF938B3109F489
:104A1000CBC108F049C08E3009F4DAC100F5873007
:104A200009F4A9C1A8F4863009F060C28091C701D9
:104A3000817F8E7F8093C7018EED97E00E945C0698
:104A40008EEF9BE00E945C0681E08093D70191C1CC
:104A5000883009F45BC08B3009F487C147C28131CB
:104A600009F42CC220F4803109F4C6C13FC286315A
:104A700009F4DDC1893109F039C282E79BE00E9467
:104A80005C0689E49BE00E945C0684E19BE00E9456
:104A90005C068DEE9AE00E945C0688EA9AE00E942D
:104AA0005C068DE79AE063C1853309F419C268F4A6
:104AB000873209F415C228F48E3108F417C28D51DB
:104AC00012C2893209F40CC211C2833438F48A3319
:104AD00008F008C2883309F448C108C2833409F4D5
:104AE000FFC1883409F002C20E94AE168DEE9BE031
:104AF0000E945C069FEF23ED80E3915020408040B0
:104B0000E1F700C000000E94431F33C182E09CE037
:104B10000E945C068DED99E00E945C060E94F820E0
:104B20001F928F938AED99E09F938F930E94F506D1
:104B300088ED99E00E945C060E94F420C82F85EC65
:104B400099E00E945C061F92CF9380EC99E09F93BE
:104B50008F930E94F5068EEB99E00E945C0684EB31
:104B600099E00E945C068C2F81701F928F9381EBDD
:104B700099E09F938F930E94F5068FEA99E00E9437
:104B80005C0685EA99E00E945C06C1FB882780F9F3
:104B90001F928F9382EA99E09F938F930E94F5066C
:104BA00080EA99E00E945C0684E999E00E945C0634
:104BB000C2FB882780F91F928F9381E999E09F9328
:104BC0008F930E94F5068FE899E00E945C0686E8C4
:104BD00099E00E945C06C3FBCC27C0F91F92CF93DB
:104BE00083E899E09F938F930E94F50681E899E00E
:104BF0000E945C060E94FC20C82F8DE699E00E946E
:104C00005C061F92CF9388E699E09F938F930E9452
:104C1000F50686E699E00E945C068DE499E00E9424
:104C20005C068C2F81701F928F938AE499E09F938A
:104C30008F930E94F5068DB79EB780960FB6F894B5
:104C40009EBF0FBE8DBF88E499E00E945C0681E3A1
:104C500099E00E945C06C1FB882780F91F928F9320
:104C60008EE299E09F938F930E94F5068CE299E083
:104C70000E945C068AE199E00E945C06C2FB8827DC
:104C800080F91F928F9387E199E09F938F930E9401
:104C9000F50685E199E00E945C0683E099E00E94B8
:104CA0005C06C3FB882780F91F928F9380E099E010
:104CB0009F938F930E94F5068EEF98E00E945C060A
:104CC00084EF98E00E945C06C4FB882780F91F925D
:104CD0008F9381EF98E09F938F930E94F5068FEE5C
:104CE00098E00E945C068DED98E00E945C06C5FB92
:104CF000882780F91F928F938AED98E09F938F9376
:104D00000E94F50688ED98E00E945C068CEB98E026
:104D10000E945C06C6FB882780F91F928F9389EB5F
:104D200098E09F938F930E94F50687EB98E00E948E
:104D30005C068FEA98E00E945C06C7FBCC27C0F9AE
:104D40001F92CF938CEA98E09F938F930E94F50671
:104D50008AEA98E00E945C068DB79EB74C960FB623
:104D6000F8949EBF0FBE8DBF04C085E098E00E94FE
:104D70005C06C1E0C0C08091C701C82FC17080FF30
:104D800009C080EE9BE00E945C068091C701817F94
:104D90008E7F47C084ED9BE00E945C068091C70136
:104DA00081608093C701E5CF9091C70191FBCC272B
:104DB000C0F981E0C827892FC0FB81F98093C70122
:104DC000CC2319F087EC9BE027C089EB9BE0CFCF89
:104DD0009091C70192FBCC27C0F981E0C827892FA9
:104DE000C0FB82F98093C701CC2319F08AEA9BE0CB
:104DF00013C08AE99BE0BBCF9091C70193FBCC27FE
:104E0000C0F981E0C827892FC0FB83F98093C701CF
:104E1000CC2351F08EE89BE00E945C068091C70194
:104E200081608093C70167C081E89BE0A0CF8FE6D7
:104E30009AE00E945C060E94B8101F928F9385E54D
:104E40009AE09F938F930E94F50680910B011F9229
:104E50008F938EE39AE09F938F930E94F506809143
:104E600062011F928F938BE29AE09F938F930E942F
:104E7000F50680910C011F928F9388E19AE09F9331
:104E80008F930E94F5068091C9019091CA01A0916B
:104E9000CB01B091CC01BF93AF939F938F9384E0EC
:104EA0009AE09F938F930E94F5068DB79EB7469622
:104EB0000FB6F8949EBF0FBE8DBF5BCF0E94AE169B
:104EC000C0910C0181E0C827C0930C01CC2329F0CC
:104ED0008AEF99E00E945C060EC08FEE99E047CF02
:104EE00080E001C089530E94E52443CF8DEE99E014
:104EF0000E945C06C0E08C2FCF91089580E0089559
:104F00000C947E27CF93C82F8091D701813071F008
:104F100020F0823009F44BC042C1E0910D01F091C4
:104F20000E018081823209F03CC107C0E0910D0181
:104F3000F0910E018081823261F48C2F0E948027D3
:104F4000811104C08C2F0E9405252FC081E090E0C4
:104F50002CC08C2F0E947E27811126C0C431E1F025
:104F600070F4CB3081F0C031D1F40E94AD2381EDDB
:104F700097E00E945C0682E08093D70115C0C93299
:104F800059F0C83361F48EED97E00E945C0685ED20
:104F900097E00E945C0608C01092D70104C18FEC14
:104FA00097E00E945C06FFC081E08170FEC0C432C1
:104FB00028F5CE3108F0C1C0CB30A1F1D0F4C73014
:104FC00009F0D3C08EE18093140182E38093130132
:104FD0008AE08093120184E18093110188E080933C
:104FE000100188E280930F0185E796E00E945C063D
:104FF000BFC0C33149F1C431C1F0B7C0CB3409F4EB
:10500000A9C028F4C93289F0C83361F0AEC0C135F7
:1050100009F49EC0C23509F499C0CE3409F0A5C088
:105020006AE09EC00E94AD23A3C08091D601882370
:1050300019F01092D6019CC082E896E00E945C06AE
:1050400081E08093D701B1C08CE596E00E945C06B8
:105050008AE496E00E945C06809114011F928F936F
:1050600087E496E09F938F930E94F50685E496E08F
:105070000E945C0683E396E00E945C068091130127
:105080001F928F9380E396E09F938F930E94F50683
:105090008EE296E00E945C068FE196E00E945C063C
:1050A000809112011F928F938CE196E09F938F93D2
:1050B0000E94F5068AE196E00E945C0689E096E08F
:1050C0000E945C06809111011F928F9386E096E00A
:1050D0009F938F930E94F50684E096E00E945C0601
:1050E0008FEE95E00E945C06809110011F928F93D5
:1050F0008CEE95E09F938F930E94F5068AEE95E0E3
:105100000E945C0683ED95E00E945C0680910F0191
:105110001F928F9380ED95E09F938F930E94F506E9
:105120008EEC95E00E945C068DB79EB748960FB650
:10513000F8949EBF0FBE8DBF1BC0CE51EC2FF0E088
:10514000E25DFE4F80818093D60112C061E003C012
:1051500061E006C06AE08091D6010E94C42308C0C5
:105160008091D6010E94672403C083E796E013C0B4
:105170008091D601882369F01F928F938DE696E087
:105180009F938F930E94F5060F900F900F900F90B2
:1051900004C08AE696E00E945C0681E006C0109298
:1051A000D70180E002C080E000CFCF9108950E9437
:1051B000DE286894B1110C946D2908950E9452293B
:1051C00088F09F5798F0B92F9927B751B0F0E1F0C8
:1051D000660F771F881F991F1AF0BA95C9F714C078
:1051E000B13091F00E946C29B1E008950C946C29C3
:1051F000672F782F8827B85F39F0B93FCCF38695B1
:1052000077956795B395D9F73EF49095809570950D
:1052100061957F4F8F4F9F4F0895E89409C097FB8A
:105220003EF490958095709561957F4F8F4F9F4F7D
:105230009923A9F0F92F96E9BB279395F6958795C1
:1052400077956795B795F111F8CFFAF4BB0F11F484
:1052500060FF1BC06F5F7F4F8F4F9F4F16C088232B
:1052600011F096E911C0772321F09EE8872F762F61
:1052700005C0662371F096E8862F70E060E02AF0A2
:105280009A95660F771F881FDAF7880F969587958E
:1052900097F9089557FD9058440F551F59F05F3FF7
:1052A00071F04795880F97FB991F61F09F3F79F048
:1052B00087950895121613061406551FF2CF4695CA
:1052C000F1DF08C0161617061806991FF1CF86954C
:1052D0007105610508940895E894BB276627772730
:1052E000CB0197F908950E9486290C94F7290E9412
:1052F000E92938F00E94F02920F0952311F00C9450
:10530000E0290C94E62911240C946D290E944A2965
:1053100070F3959FC1F3950F50E0551F629FF00108
:10532000729FBB27F00DB11D639FAA27F00DB11D21
:10533000AA1F649F6627B00DA11D661F829F2227AA
:10534000B00DA11D621F739FB00DA11D621F839F31
:10535000A00D611D221F749F3327A00D611D231F07
:10536000849F600D211D822F762F6A2F11249F5755
:1053700050409AF0F1F088234AF0EE0FFF1FBB1F58
:10538000661F771F881F91505040A9F79E3F510517
:1053900080F00C94E0290C946D295F3FE4F3983E73
:1053A000D4F3869577956795B795F795E7959F5FC1
:1053B000C1F7FE2B880F911D9695879597F9089553
:1053C00097F99F6780E870E060E008959FEF80ECB8
:1053D000089500240A94161617061806090608955B
:1053E00000240A9412161306140605060895092EC1
:1053F0000394000C11F4882352F0BB0F40F4BF2B30
:1054000011F460FF04C06F5F7F4F8F4F9F4F08956F
:10541000991B79E004C0991F961708F0961B881F06
:105420007A95C9F78095089597FB072E16F4009496
:1054300007D077FD09D00E942E2A07FC05D03EF444
:10544000909581959F4F0895709561957F4F089530
:10545000EE0FFF1F0590F491E02D0994AA1BBB1BD2
:1054600051E107C0AA1FBB1FA617B70710F0A61B64
:10547000B70B881F991F5A95A9F780959095BC0185
:10548000CD010895F999FECF92BD81BDF89A992773
:1054900080B50895A8E1B0E042E050E00C94652AA0
:1054A000262FF999FECF1FBA92BD81BD20BD0FB640
:1054B000F894FA9AF99A0FBE019608950E94502A1C
:1054C000272F0C94512ADC01CB01FC01F999FECF66
:1054D00006C0F2BDE1BDF89A319600B40D9241507C
:0A54E0005040B8F70895F894FFCF8C
:1054EA00050809F909D609A2096E090101B50128B9
:1054FA0008140A321E3F4D362039BF0372033C039B
:10550A001C03E30256026F028802A102C1020102D1
:08551A0003040506070809005F
:00000001FF
